:100000000C942A000C943C000C943C000C943C0092
:100010000C943C000C943C000C943C000C943C0070
:100020000C943C000C943C000C943C000C943C0060
:100030000C94C4040C943C000C943C000C943C00C4
:100040000C943C000C943C000C943C000C943C0040
:100050000C943C0011241FBECFE5D8E0DEBFCDBF1D
:1000600010E0A0E6B0E001C01D92A236B107E1F7B2
:100070000E9423050C9468050C940000DF93CF9335
:10008000CDB7DEB727970FB6F894DEBF0FBECDBF52
:1000900089836A834B838B81813009F06FC08981AA
:1000A000282F30E03F832E838E819F818130910500
:1000B00049F12E813F81223031052CF48E819F81C0
:1000C000009761F0D2C02E813F812230310571F15D
:1000D0008E819F8183309105E9F1C7C0AAE3B0E02A
:1000E000EAE3F0E08081482F8A81282F30E081E028
:1000F00090E0022E02C0880F991F0A94E2F7842B29
:100100008C93B3C0A7E3B0E0E7E3F0E08081482F31
:100110008A81282F30E081E090E0022E02C0880F13
:10012000991F0A94E2F7842B8C939FC0A4E3B0E05C
:10013000E4E3F0E08081482F8A81282F30E081E0DD
:1001400090E0022E02C0880F991F0A94E2F7842BD8
:100150008C938BC0A1E3B0E0E1E3F0E08081482F15
:100160008A81282F30E081E090E0022E02C0880FC3
:10017000991F0A94E2F7842B8C9377C08B81882394
:1001800009F073C08981282F30E03D832C838C8156
:100190009D818130910559F12C813D8122303105BD
:1001A0002CF48C819D81009769F05FC02C813D818A
:1001B0002230310589F18C819D818330910509F4CC
:1001C00040C053C0AAE3B0E0EAE3F0E08081482FEA
:1001D0008A81282F30E081E090E0022E02C0880F53
:1001E000991F0A94E2F7809584238C933EC0A7E37D
:1001F000B0E0E7E3F0E08081482F8A81282F30E0EB
:1002000081E090E0022E02C0880F991F0A94E2F765
:10021000809584238C9329C0A4E3B0E0E4E3F0E06C
:100220008081482F8A81282F30E081E090E0022EE3
:1002300002C0880F991F0A94E2F7809584238C935B
:1002400014C0A1E3B0E0E1E3F0E08081482F8A81AF
:10025000282F30E081E090E0022E02C0880F991F25
:100260000A94E2F7809584238C9327960FB6F8942E
:10027000DEBF0FBECDBFCF91DF910895DF93CF9347
:10028000CDB7DEB727970FB6F894DEBF0FBECDBF50
:1002900089836A834B838B81813009F06FC08981A8
:1002A000282F30E03F832E838E819F8181309105FE
:1002B00049F12E813F81223031052CF48E819F81BE
:1002C000009761F0D2C02E813F812230310571F15B
:1002D0008E819F8183309105E9F1C7C0ABE3B0E027
:1002E000EBE3F0E08081482F8A81282F30E081E025
:1002F00090E0022E02C0880F991F0A94E2F7842B27
:100300008C93B3C0A8E3B0E0E8E3F0E08081482F2D
:100310008A81282F30E081E090E0022E02C0880F11
:10032000991F0A94E2F7842B8C939FC0A5E3B0E059
:10033000E5E3F0E08081482F8A81282F30E081E0DA
:1003400090E0022E02C0880F991F0A94E2F7842BD6
:100350008C938BC0A2E3B0E0E2E3F0E08081482F11
:100360008A81282F30E081E090E0022E02C0880FC1
:10037000991F0A94E2F7842B8C9377C08B81882392
:1003800009F073C08981282F30E03D832C838C8154
:100390009D818130910559F12C813D8122303105BB
:1003A0002CF48C819D81009769F05FC02C813D8188
:1003B0002230310589F18C819D818330910509F4CA
:1003C00040C053C0ABE3B0E0EBE3F0E08081482FE6
:1003D0008A81282F30E081E090E0022E02C0880F51
:1003E000991F0A94E2F7809584238C933EC0A8E37A
:1003F000B0E0E8E3F0E08081482F8A81282F30E0E8
:1004000081E090E0022E02C0880F991F0A94E2F763
:10041000809584238C9329C0A5E3B0E0E5E3F0E068
:100420008081482F8A81282F30E081E090E0022EE1
:1004300002C0880F991F0A94E2F7809584238C9359
:1004400014C0A2E3B0E0E2E3F0E08081482F8A81AB
:10045000282F30E081E090E0022E02C0880F991F23
:100460000A94E2F7809584238C9327960FB6F8942C
:10047000DEBF0FBECDBFCF91DF910895DF93CF9345
:1004800000D000D00F92CDB7DEB78A836B8319827C
:100490008A81282F30E03D832C834C815D8141305F
:1004A000510541F18C819D818230910534F42C817C
:1004B0003D812115310561F052C04C815D81423092
:1004C000510551F18C819D8183309105B9F147C06F
:1004D000E9E3F0E08081282F30E08B81882F90E0E5
:1004E000A90102C0559547958A95E2F7CA01817026
:1004F000898335C0E6E3F0E08081282F30E08B81EE
:10050000882F90E0A90102C0559547958A95E2F79A
:10051000CA018170898323C0E3E3F0E08081282F42
:1005200030E08B81882F90E0A90102C05595479556
:100530008A95E2F7CA018170898311C0E0E3F0E097
:100540008081282F30E08B81882F90E0A90102C0A4
:10055000559547958A95E2F7CA018170898389810B
:100560000F900F900F900F900F90CF91DF91089503
:10057000DF93CF9300D000D0CDB7DEB789836A83F5
:100580008981282F30E03C832B838B819C818130B3
:100590009105D1F02B813C81223031052CF48B81E7
:1005A0009C81009761F01EC02B813C812230310577
:1005B00081F08B819C818330910581F013C0EAE347
:1005C000F0E08A8180830EC0E7E3F0E08A818083D7
:1005D00009C0E4E3F0E08A81808304C0E1E3F0E055
:1005E0008A8180830F900F900F900F90CF91DF91B1
:1005F0000895DF93CF9300D000D0CDB7DEB78983C5
:100600006A838981282F30E03C832B838B819C81F6
:1006100081309105D1F02B813C81223031052CF4C1
:100620008B819C81009761F01EC02B813C81223020
:10063000310581F08B819C818330910581F013C05D
:10064000EBE3F0E08A8180830EC0E8E3F0E08A818A
:10065000808309C0E5E3F0E08A81808304C0E2E39F
:10066000F0E08A8180830F900F900F900F90CF91D0
:10067000DF910895DF93CF9300D000D0CDB7DEB7E0
:1006800089836A838981282F30E03C832B838B8187
:100690009C818130910549F12B813C8122303105CB
:1006A0002CF48B819C81009761F05AC02B813C8196
:1006B0002230310571F18B819C8183309105E9F104
:1006C0004FC0ABE3B0E0EBE3F0E08081482F8A81DC
:1006D000282F30E081E090E0022E02C0880F991FA1
:1006E0000A94E2F784278C933BC0A8E3B0E0E8E3E8
:1006F000F0E08081482F8A81282F30E081E090E06F
:10070000022E02C0880F991F0A94E2F784278C9367
:1007100027C0A5E3B0E0E5E3F0E08081482F8A81BF
:10072000282F30E081E090E0022E02C0880F991F50
:100730000A94E2F784278C9313C0A2E3B0E0E2E3CB
:10074000F0E08081482F8A81282F30E081E090E01E
:10075000022E02C0880F991F0A94E2F784278C9317
:100760000F900F900F900F90CF91DF910895DF932E
:10077000CF930F92CDB7DEB71982898180648983C8
:1007800089818061898389818F7D89838981877F40
:10079000898389818B7F898389818160898389812C
:1007A00082608983AEE2B0E0EEE2F0E080818E7F8D
:1007B0008C93EDE2F0E0898180830F90CF91DF91FF
:1007C0000895DF93CF930F92CDB7DEB71982898159
:1007D0008064898389818F7E898389818F7D8983E4
:1007E0008981877F898389818B7F8983EDE2F0E02E
:1007F000898180830F90CF91DF910895DF93CF930C
:100800000F92CDB7DEB78983EFE2F0E08981808374
:10081000EEE2F0E080818823DCF7AEE2B0E0EEE2C9
:10082000F0E0808180688C930F90CF91DF910895E4
:10083000DF93CF93CDB7DEB7EEE2F0E0808188237F
:10084000DCF7AEE2B0E0EEE2F0E0808180688C930D
:10085000EFE2F0E08081CF91DF910895DF93CF93B5
:1008600000D00F92CDB7DEB79B838A8319821BC05D
:10087000AFE2B0E08981282F30E08A819B81FC01C2
:10088000E20FF31F80818C93EEE2F0E080818823F9
:10089000DCF7AEE2B0E0EEE2F0E0808180688C93BD
:1008A00089818F5F89838981282F30E08A819B81AC
:1008B000FC01E20FF31F80818823D1F60F900F9087
:1008C0000F90CF91DF910895DF93CF9300D00F92D7
:1008D000CDB7DEB71B821A8219820EC08A819B8136
:1008E00001969B838A838A819B8127E280319207CC
:1008F00019F48FEF898305C0EEE2F0E08081882350
:100900006CF78981882321F4EFE2F0E0808189830C
:10091000AEE2B0E0EEE2F0E0808180688C93898105
:100920000F900F900F90CF91DF910895DF93CF93A9
:1009300000D0CDB7DEB79A83898389819A8190935D
:100940006100809360000F900F90CF91DF91089528
:10095000DF93CF93CDB7DEB7ADE2B0E0EDE2F0E0EC
:10096000808180688C93CF91DF910895DF93CF933E
:10097000CDB7DEB7ADE2B0E0EDE2F0E080818F7799
:100980008C93CF91DF9108951F920F920FB60F9223
:1009900011242F933F934F935F936F937F938F9384
:1009A0009F93AF93BF93EF93FF93DF93CF93CDB715
:1009B000DEB78091600090916100009729F0E0918E
:1009C0006000F09161000995CF91DF91FF91EF9167
:1009D000BF91AF919F918F917F916F915F914F9157
:1009E0003F912F910F900FBE0F901F901895DF939E
:1009F000CF9300D0CDB7DEB7898300000F900F9062
:100A0000CF91DF910895DF93CF9300D00F92CDB7B0
:100A1000DEB789837B836A8300000F900F900F906D
:100A2000CF91DF910895DF93CF9300D00F92CDB790
:100A3000DEB789837B836A8300000F900F900F904D
:100A4000CF91DF910895DF93CF930F92CDB7DEB7AB
:100A500081E064E040E00E943E0081E065E040E02B
:100A60000E943E0081E066E041E00E943E0081E09D
:100A700067E040E00E943E0080E060E041E00E94CC
:100A80003E0080E061E041E00E943E000E94E10300
:100A900019820E94180489838981813059F480E089
:100AA00060E041E00E943E0180E061E040E00E94A1
:100AB0003E01EFCF8981882361F780E060E040E06C
:100AC0000E943E0180E061E041E00E943E01E1CFF2
:040AD000F894FFCFC8
:00000001FF
