:100000000C942A000C947D0B0C94B00B0C94E30B15
:100010000C9447000C9447000C94621C0C94FC1B3D
:100020000C942F1C0C94C91B0C9404150C943715BC
:100030000C9447000C9447000C9447000C94470024
:100040000C9447000C9447000C9447000C94470014
:100050000C94470011241FBECFE5D8E0DEBFCDBF12
:1000600011E0A0E6B0E0ECE5FCE302C005900D92E3
:10007000A23CB107D9F711E0A2ECB1E001C01D929A
:10008000A13EB107E1F70E94951C0C942C1E0C9424
:100090000000EF92FF920F931F937B018C0120E0F1
:1000A00030E040E05FE40E94490388238CF0C801FF
:1000B000B70120E030E040E05FE40E94C1010E940F
:1000C000A9039B01AC01205030404040504806C07D
:1000D000C801B7010E94A9039B01AC01B901CA0183
:1000E0001F910F91FF90EF900895A0E0B0E0EBE733
:1000F000F0E00C94F51DDC012B01FA019C9192308B
:1001000008F439C1EB018881823008F433C194309E
:1001100069F4843009F02FC111969C91119789815F
:10012000981709F428C1AAE7B0E025C1843009F482
:1001300021C18230A9F4923009F01DC19A01AD01AC
:1001400088E0EA010990AE01E90109929E0181501F
:10015000C1F7E201898111969C918923818308C1AD
:10016000923009F407C112962D903C901397EB0141
:100170008A819B811496AD90BD90CD90DC901797AD
:10018000EC80FD800E811F819101281B390BB90184
:1001900037FF04C066277727621B730B6032710537
:1001A0000CF061C0121613066CF537014801062EDB
:1001B00004C096948794779467940A94D2F721E0C8
:1001C00030E040E050E004C0220F331F441F551FB1
:1001D0006A95D2F721503040404050402E213F21B7
:1001E00040235123211531054105510521F021E01E
:1001F00030E040E050E079018A01E628F72808293C
:1002000019293CC0232BD1F1260E371E350146019A
:10021000062E04C096948794779467940A94D2F734
:1002200021E030E040E050E004C0220F331F441FC3
:10023000551F6A95D2F721503040404050402A2146
:100240003B214C215D21211531054105510521F04E
:1002500021E030E040E050E059016A01A628B728CB
:10026000C828D9280BC0821593052CF01C01AA249C
:10027000BB24650103C0EE24FF24870111969C91E5
:10028000D20111968C91981709F445C0992339F041
:10029000A80197012A193B094C095D0906C0A6016E
:1002A00095012E193F09400B510B57FD08C01182D3
:1002B0003382228224833583468357831DC081E0A5
:1002C00081833382228288279927DC01821B930B4A
:1002D000A40BB50B84839583A683B7830DC0220F2F
:1002E000331F441F551F24833583468357838281E0
:1002F000938101979383828324813581468157813D
:10030000DA01C9010197A109B1098F5F9F4FAF4F72
:10031000BF4328F30BC0918333822282EA0CFB1C7B
:100320000C1D1D1DE482F5820683178383E0808304
:10033000248135814681578157FF1AC0C901AA27F8
:1003400097FDA095BA2F81709070A070B0705695EF
:10035000479537952795822B932BA42BB52B848318
:100360009583A683B7838281938101969383828349
:10037000DF0101C0D201CD01CDB7DEB7E2E10C94BF
:10038000111EA0E2B0E0E7ECF1E00C94011E6983DD
:100390007A838B839C832D833E834F835887E9E048
:1003A000EE2EF12CEC0EFD1ECE010196B7010E943F
:1003B0009A058E010F5E1F4FCE010596B8010E946F
:1003C0009A058A8991E089278A8BC701B801AE0115
:1003D000475E5F4F0E9475000E94C504A096E6E04C
:1003E0000C941D1EA0E2B0E0E8EFF1E00C94011EB9
:1003F00069837A838B839C832D833E834F835887C5
:10040000F9E0EF2EF12CEC0EFD1ECE010196B701A6
:100410000E949A058E010F5E1F4FCE010596B8010E
:100420000E949A05C701B801AE01475E5F4F0E9466
:1004300075000E94C504A096E6E00C941D1EA0E283
:10044000B0E0E5E2F2E00C94F51D69837A838B83DA
:100450009C832D833E834F835887CE010196BE0136
:10046000675F7F4F0E949A05CE010596BE016F5EC1
:100470007F4F0E949A059985923088F08989823051
:10048000C8F0943019F4823051F404C0843029F457
:10049000923081F48AE790E0C6C0923049F420E0BF
:1004A0009A858A89981321E02A87CE010996BBC0D4
:1004B000823049F420E09A858A89981321E02A8BBA
:1004C000CE014196B0C02D843E844F8458886D88FB
:1004D0007E888F88988CEE24FF248701AA24BB2471
:1004E000650140E050E060E070E0E0E0F0E0C10174
:1004F00081709070892BE9F0E60CF71C081D191D1E
:100500009A01AB012A0D3B1D4C1D5D1D80E090E062
:10051000A0E0B0E0E614F7040805190520F481E036
:1005200090E0A0E0B0E0BA01A901480F591F6A1F8E
:100530007B1FAA0CBB1CCC1CDD1C97FE08C081E0F5
:1005400090E0A0E0B0E0A82AB92ACA2ADB2A3196B6
:10055000E032F10549F0660C771C881C991C569412
:10056000479437942794C3CFFA85EA892B893C892D
:100570008B859C85280F391F2E5F3F4F17C0CA01FE
:1005800081709070892B61F016950795F794E79428
:1005900080E090E0A0E0B0E8E82AF92A0A2B1B2BC3
:1005A00076956795579547952F5F3F4F77FDE7CF36
:1005B0000CC0440F551F661F771F17FD4160EE0CDE
:1005C000FF1C001F111F21503040403090E05907A0
:1005D00090E0690790E4790760F32B8F3C8FDB0193
:1005E000CA018F779070A070B07080349105A1051A
:1005F000B10561F447FD0AC0E114F10401051105DC
:1006000029F0405C5F4F6F4F7F4F40781A8EFE1786
:1006100011F081E08A8F4D8F5E8F6F8F78A383E01A
:10062000898FCE0149960E94C504A096E2E10C9400
:10063000111EA8E1B0E0EFE1F3E00C94011E698324
:100640007A838B839C832D833E834F83588789E0F5
:10065000E82EF12CEC0EFD1ECE010196B7010E9492
:100660009A058E010F5E1F4FCE010596B8010E94BC
:100670009A058985823040F08989823028F0C70147
:10068000B8010E94120601C08FEF6896E6E00C9454
:100690001D1EA8E1B0E0EFE4F3E00C94011E6983B5
:1006A0007A838B839C832D833E834F83588789E095
:1006B000E82EF12CEC0EFD1ECE010196B7010E9432
:1006C0009A058E010F5E1F4FCE010596B8010E945C
:1006D0009A058985823040F08989823028F0C701E7
:1006E000B8010E94120601C08FEF6896E6E00C94F4
:1006F0001D1EA8E1B0E0EFE7F3E00C94011E698352
:100700007A838B839C832D833E834F83588789E034
:10071000E82EF12CEC0EFD1ECE010196B7010E94D1
:100720009A058E010F5E1F4FCE010596B8010E94FB
:100730009A058985823040F08989823028F0C70186
:10074000B8010E94120601C081E06896E6E00C94B0
:100750001D1EACE0B0E0EFEAF3E00C94051E6983E7
:100760007A838B839C83CE010196BE016B5F7F4FA2
:100770000E949A058D81823061F1823050F184307F
:1007800021F48E81882351F12EC02F81388537FDC9
:1007900020C06E812F3131051CF06623F9F023C093
:1007A0008EE190E0821B930B29853A854B855C8511
:1007B00004C056954795379527958A95D2F76623B5
:1007C000B1F050954095309521953F4F4F4F5F4F79
:1007D0000EC020E030E040E050E009C02FEF3FEFD6
:1007E0004FEF5FE704C020E030E040E050E8B9019F
:1007F000CA012C96E2E00C94211EA8E0B0E0E3E0F0
:10080000F4E00C94FD1D7B018C01611571058105DF
:10081000910519F482E0898360C083E089838EE1C9
:10082000C82ED12CDC82CB82ED82FE820F8318870A
:10083000C801B7010E947604FC013197F7FF3BC065
:10084000222733272E1B3F0B57016801022E04C0BD
:10085000D694C794B794A7940A94D2F740E050E096
:1008600060E070E081E090E0A0E0B0E004C0880FBC
:10087000991FAA1FBB1F2A95D2F70197A109B10999
:100880008E219F21A023B1230097A105B10521F05E
:1008900041E050E060E070E04A295B296C297D2945
:1008A0004D835E836F8378878EE190E08E1B9F0B74
:1008B0009C838B8312C0309781F00E2E04C0EE0C07
:1008C000FF1C001F111F0A94D2F7ED82FE820F83D6
:1008D0001887CE1ADF0ADC82CB821A82CE010196FB
:1008E0000E94C5042896EAE00C94191EEF92FF922C
:1008F0000F931F937B018C0180E0E81680E0F806DF
:1009000081E0080780E0180788F48FEFE816F1040B
:100910000105110531F028F088E090E0A0E0B0E09A
:1009200017C080E090E0A0E0B0E012C080E0E816E0
:1009300080E0F80680E0080781E0180728F088E1E9
:1009400090E0A0E0B0E004C080E190E0A0E0B0E082
:1009500020E230E040E050E0281B390B4A0B5B0BF3
:1009600004C016950795F794E7948A95D2F7F70196
:10097000EE57FF4F8081281B310941095109C901F8
:100980001F910F91FF90EF900895DF92EF92FF92E9
:100990000F931F93FC01E480F58006811781D180BD
:1009A0008081823048F480E090E0A0E1B0E0E82A65
:1009B000F92A0A2B1B2BA5C0843009F49FC0823072
:1009C00021F4EE24FF24870105C0E114F1040105A0
:1009D000110519F4E0E0F0E096C0628173819FEFA9
:1009E000623879070CF05BC022E83FEF261B370B1B
:1009F0002A3131052CF020E030E040E050E02AC000
:100A0000B801A701022E04C07695679557954795C2
:100A10000A94D2F781E090E0A0E0B0E004C0880F33
:100A2000991FAA1FBB1F2A95D2F70197A109B109E7
:100A30008E219F21A023B1230097A105B10521F0AC
:100A400081E090E0A0E0B0E09A01AB01282B392BC7
:100A50004A2B5B2BDA01C9018F779070A070B070C0
:100A600080349105A105B10539F427FF09C0205C48
:100A70003F4F4F4F5F4F04C0215C3F4F4F4F5F4F81
:100A8000E0E0F0E02030A0E03A07A0E04A07A0E470
:100A90005A0710F0E1E0F0E079018A0127C06038E0
:100AA000710564F5FB01E158FF4FD801C7018F774D
:100AB0009070A070B07080349105A105B10539F433
:100AC000E7FE0DC080E490E0A0E0B0E004C08FE35A
:100AD00090E0A0E0B0E0E80EF91E0A1F1B1F17FF10
:100AE00005C016950795F794E794319687E016951B
:100AF0000795F794E7948A95D1F705C0EE24FF2473
:100B00008701EFEFF0E06E2F679566276795902FCE
:100B10009F77D794DD24D7948E2F8695492F462B27
:100B2000582F5D29B701CA011F910F91FF90EF90D7
:100B3000DF900895FC01DB01408151812281622F09
:100B40006F7770E0221F2227221F9381892F880F41
:100B5000822B282F30E0991F9927991F11969C937B
:100B6000119721153105A9F541155105610571054B
:100B700011F482E037C082E89FEF13969C938E9326
:100B800012979A01AB0167E0220F331F441F551FD4
:100B90006A95D1F783E08C930DC0220F331F441F59
:100BA000551F12968D919C911397019713969C93C4
:100BB0008E931297203080E0380780E0480780E469
:100BC000580758F314962D933D934D935C931797C4
:100BD00008952F3F310579F44115510561057105DF
:100BE00019F484E08C93089564FF03C081E08C9332
:100BF00012C01C9210C02F57304013963C932E9376
:100C0000129783E08C9387E0440F551F661F771F70
:100C10008A95D1F7706414964D935D936D937C9390
:100C2000179708951F93DC01FB019C91923008F403
:100C300047C08081823008F443C0943051F411964B
:100C40001C91843099F58181682F70E0611B7109D6
:100C50003FC0843021F0923031F48230B9F181818B
:100C6000882389F12DC011961C9111978230F1F0E3
:100C700081811817D9F412962D913C911397828196
:100C800093818217930794F028173907BCF01496C4
:100C90008D919D910D90BC91A02D2481358146812F
:100CA0005781281739074A075B0718F4112341F0C9
:100CB0000AC082179307A407B50740F4112319F05F
:100CC00061E070E005C06FEF7FEF02C060E070E0B0
:100CD000CB011F910895DF93CF9300D0CDB7DEB73E
:100CE00089836A838A81813009F070C08981883064
:100CF000A0F4AAE3B0E0EAE3F0E08081482F898124
:100D0000282F30E081E090E0022E02C0880F991F6A
:100D10000A94E2F7842B8C93CEC089818830D0F07E
:100D200089818031B8F4A7E3B0E0E7E3F0E08081A7
:100D3000482F8981882F90E09C012850304081E025
:100D400090E0022E02C0880F991F0A94E2F7842BCC
:100D50008C93B1C089818031D0F089818831B8F419
:100D6000A4E3B0E0E4E3F0E08081482F8981882F9C
:100D700090E09C012051304081E090E0022E02C0C2
:100D8000880F991F0A94E2F7842B8C9394C0898171
:100D9000883108F490C08981803208F08CC0A1E3CA
:100DA000B0E0E1E3F0E08081482F8981882F90E076
:100DB0009C012851304081E090E0022E02C0880F53
:100DC000991F0A94E2F7842B8C9375C08A8188233B
:100DD00009F071C089818830A8F4AAE3B0E0EAE3A1
:100DE000F0E08081482F8981282F30E081E090E079
:100DF000022E02C0880F991F0A94E2F7809584237F
:100E00008C9359C089818830D8F089818031C0F4B1
:100E1000A7E3B0E0E7E3F0E08081482F8981882FE5
:100E200090E09C012850304081E090E0022E02C00A
:100E3000880F991F0A94E2F7809584238C933BC016
:100E400089818031D8F089818831C0F4A4E3B0E091
:100E5000E4E3F0E08081482F8981882F90E09C01B5
:100E60002051304081E090E0022E02C0880F991F8F
:100E70000A94E2F7809584238C931DC08981883180
:100E8000D0F089818032B8F4A1E3B0E0E1E3F0E092
:100E90008081482F8981882F90E09C012851304023
:100EA00081E090E0022E02C0880F991F0A94E2F7B9
:100EB000809584238C930F900F90CF91DF910895AC
:100EC000DF93CF9300D0CDB7DEB789836A838A8161
:100ED000813009F070C089818830A0F4ABE3B0E0C4
:100EE000EBE3F0E08081482F8981282F30E081E01A
:100EF00090E0022E02C0880F991F0A94E2F7842B1B
:100F00008C93CEC089818830D0F089818031B8F44B
:100F1000A8E3B0E0E8E3F0E08081482F8981882FE2
:100F200090E09C012850304081E090E0022E02C009
:100F3000880F991F0A94E2F7842B8C93B1C08981A2
:100F40008031D0F089818831B8F4A5E3B0E0E5E3E1
:100F5000F0E08081482F8981882F90E09C0120510A
:100F6000304081E090E0022E02C0880F991F0A9461
:100F7000E2F7842B8C9394C08981883108F490C067
:100F80008981803208F08CC0A2E3B0E0E2E3F0E0B7
:100F90008081482F8981882F90E09C012851304022
:100FA00081E090E0022E02C0880F991F0A94E2F7B8
:100FB000842B8C9375C08A81882309F071C0898144
:100FC0008830A8F4ABE3B0E0EBE3F0E08081482F99
:100FD0008981282F30E081E090E0022E02C0880F46
:100FE000991F0A94E2F7809584238C9359C08981D4
:100FF0008830D8F089818031C0F4A8E3B0E0E8E31C
:10100000F0E08081482F8981882F90E09C01285052
:10101000304081E090E0022E02C0880F991F0A94B0
:10102000E2F7809584238C933BC089818031D8F08E
:1010300089818831C0F4A5E3B0E0E5E3F0E0808188
:10104000482F8981882F90E09C012051304081E019
:1010500090E0022E02C0880F991F0A94E2F7809553
:1010600084238C931DC089818831D0F0898180329E
:10107000B8F4A2E3B0E0E2E3F0E08081482F898198
:10108000882F90E09C012851304081E090E0022EB2
:1010900002C0880F991F0A94E2F7809584238C93ED
:1010A0000F900F90CF91DF910895DF93CF9300D0F1
:1010B000CDB7DEB78A8319828A81883090F4E9E35C
:1010C000F0E08081282F30E08A81882F90E0A9010C
:1010D00002C0559547958A95E2F7CA0181708983C8
:1010E00047C08A818830A8F08A81803190F4E6E395
:1010F000F0E08081282F30E08A81882F90E0A901DC
:1011000002C0559547958A95E2F7CA018170898397
:101110002FC08A818031A8F08A81883190F4E3E37E
:10112000F0E08081282F30E08A81882F90E0A901AB
:1011300002C0559547958A95E2F7CA018170898367
:1011400017C08A818831A0F08A81803288F4E0E378
:10115000F0E08081282F30E08A81882F90E0A9017B
:1011600002C0559547958A95E2F7CA018170898337
:1011700089810F900F90CF91DF910895DF93CF93E6
:1011800000D000D0CDB7DEB789836A838981282F4C
:1011900030E03C832B838B819C8181309105D1F0A1
:1011A0002B813C81223031052CF48B819C8100976E
:1011B00061F01EC02B813C812230310581F08B8192
:1011C0009C818330910581F013C0EAE3F0E08A81CD
:1011D00080830EC0E7E3F0E08A81808309C0E4E306
:1011E000F0E08A81808304C0E1E3F0E08A818083BB
:1011F0000F900F900F900F90CF91DF910895DF9394
:10120000CF9300D000D0CDB7DEB789836A838981C0
:10121000282F30E03C832B838B819C81813091058A
:10122000D1F02B813C81223031052CF48B819C81C3
:10123000009761F01EC02B813C812230310581F086
:101240008B819C818330910581F013C0EBE3F0E04A
:101250008A8180830EC0E8E3F0E08A81808309C040
:10126000E5E3F0E08A81808304C0E2E3F0E08A8174
:1012700080830F900F900F900F90CF91DF91089582
:10128000DF93CF930F92CDB7DEB789838981883002
:10129000A0F4ABE3B0E0EBE3F0E08081482F89817C
:1012A000282F30E081E090E0022E02C0880F991FC5
:1012B0000A94E2F784278C9356C089818830D0F055
:1012C00089818031B8F4A8E3B0E0E8E3F0E0808100
:1012D000482F8981882F90E09C012850304081E080
:1012E00090E0022E02C0880F991F0A94E2F784272B
:1012F0008C9339C089818031D0F089818831B8F4EC
:10130000A5E3B0E0E5E3F0E08081482F8981882FF4
:1013100090E09C012051304081E090E0022E02C01C
:10132000880F991F0A94E2F784278C931CC0898147
:101330008831C8F089818032B0F4A2E3B0E0E2E302
:10134000F0E08081482F8981882F90E09C0128510E
:10135000304081E090E0022E02C0880F991F0A946D
:10136000E2F784278C930F90CF91DF910895DF935C
:10137000CF9300D000D0CDB7DEB78A8319828A819F
:10138000282F30E03C832B838B819C818130910519
:10139000D1F02B813C81223031052CF48B819C8152
:1013A000009761F01EC02B813C812230310581F015
:1013B0008B819C818330910581F013C0E9E3F0E0DB
:1013C000808189830EC0E6E3F0E08081898309C0D3
:1013D000E3E3F0E08081898304C0E0E3F0E0808112
:1013E000898389810F900F900F900F90CF91DF919B
:1013F0000895DF93CF93CDB7DEB7ABE5B0E0EBE573
:10140000F0E0808180648C93CF91DF910895DF9329
:10141000CF93CDB7DEB7ABE5B0E0EBE5F0E0808190
:101420008F7B8C93CF91DF910895DF93CF93CDB7CE
:10143000DEB7ABE5B0E0EBE5F0E0808180688C934F
:10144000CF91DF910895DF93CF93CDB7DEB7ABE5B2
:10145000B0E0EBE5F0E080818F778C93CF91DF9166
:101460000895DF93CF93CDB7DEB7ABE5B0E0EBE502
:10147000F0E0808180628C93CF91DF910895DF93BB
:10148000CF93CDB7DEB7ABE5B0E0EBE5F0E0808120
:101490008F7D8C93CF91DF910895DF93CF9300D010
:1014A0000F92CDB7DEB789838981282F30E03B8347
:1014B0002A838A819B818130910521F12A813B8198
:1014C000223031052CF48A819B81009761F046C05F
:1014D0002A813B812230310521F18A819B81833031
:1014E000910571F13BC0A5E5B0E0E5E5F0E0808154
:1014F0008E7F8C93A5E5B0E0E5E5F0E080818D7FFF
:101500008C932CC0A5E5B0E0E5E5F0E0808181603A
:101510008C93A5E5B0E0E5E5F0E080818D7F8C93CC
:101520001DC0A5E5B0E0E5E5F0E080818E7F8C93FD
:10153000A5E5B0E0E5E5F0E0808182608C930EC027
:10154000A5E5B0E0E5E5F0E0808181608C93A5E55C
:10155000B0E0E5E5F0E0808182608C930F900F9021
:101560000F90CF91DF910895DF93CF9300D00F922A
:10157000CDB7DEB789838981282F30E03B832A836A
:101580008A819B818130910521F12A813B81223022
:1015900031052CF48A819B81009761F046C02A8135
:1015A0003B812230310521F18A819B818330910575
:1015B00071F13BC0A5E5B0E0E5E5F0E080818B7F0F
:1015C0008C93A5E5B0E0E5E5F0E08081877F8C9322
:1015D0002CC0A5E5B0E0E5E5F0E0808184608C9367
:1015E000A5E5B0E0E5E5F0E08081877F8C931DC044
:1015F000A5E5B0E0E5E5F0E080818B7F8C93A5E583
:10160000B0E0E5E5F0E0808188608C930EC0A5E550
:10161000B0E0E5E5F0E0808184608C93A5E5B0E082
:10162000E5E5F0E0808188608C930F900F900F903B
:10163000CF91DF910895DF93CF9300D00F92CDB774
:10164000DEB789838981282F30E03B832A838A8112
:101650009B818230910531F02A813B812330310515
:1016600049F00FC0A4E5B0E0E4E5F0E080818F7BB5
:101670008C9307C0A4E5B0E0E4E5F0E080818064ED
:101680008C930F900F900F90CF91DF910895DF937F
:10169000CF9300D0CDB7DEB79A83898389819A81B1
:1016A0009093C3018093C2010F900F90CF91DF916F
:1016B0000895DF93CF9300D0CDB7DEB79A838983A7
:1016C00089819A819093C5018093C4010F900F90F6
:1016D000CF91DF910895DF93CF9300D0CDB7DEB7E0
:1016E0009A83898389819A819093C7018093C601E7
:1016F0000F900F90CF91DF9108951F920F920FB628
:101700000F9211242F933F934F935F936F937F9387
:101710008F939F93AF93BF93EF93FF93DF93CF93F9
:10172000CDB7DEB78091C2019091C301009729F037
:10173000E091C201F091C3010995CF91DF91FF9132
:10174000EF91BF91AF919F918F917F916F915F9139
:101750004F913F912F910F900FBE0F901F901895B2
:101760001F920F920FB60F9211242F933F934F9316
:101770005F936F937F938F939F93AF93BF93EF93F9
:10178000FF93DF93CF93CDB7DEB78091C4019091E3
:10179000C501009729F0E091C401F091C5010995B8
:1017A000CF91DF91FF91EF91BF91AF919F918F9179
:1017B0007F916F915F914F913F912F910F900FBE4D
:1017C0000F901F9018951F920F920FB60F92112431
:1017D0002F933F934F935F936F937F938F939F9339
:1017E000AF93BF93EF93FF93DF93CF93CDB7DEB764
:1017F0008091C6019091C701009729F0E091C60140
:10180000F091C7010995CF91DF91FF91EF91BF91C1
:10181000AF919F918F917F916F915F914F913F9188
:101820002F910F900FBE0F901F901895DF93CF93BD
:10183000CDB7DEB7AFE5B0E0EFE5F0E080818068DE
:101840008C93CF91DF910895DF93CF93CDB7DEB71F
:10185000AFE5B0E0EFE5F0E080818F778C93CF913A
:10186000DF910895DF93CF93CDB7DEB76D970FB6B5
:10187000F894DEBF0FBECDBF8D8F80E161E00E9486
:10188000600781E160E00E94600780E06D8D0E944A
:10189000FF0882E161E00E94600780E090E0A0E83C
:1018A000BFE3898F9A8FAB8FBC8F698D7A8D8B8DBB
:1018B0009C8D20E030E04AEF54E40E941F02DC01DE
:1018C000CB018D8B9E8BAF8BB88F6D897E898F8975
:1018D000988D20E030E040E85FE30E9479038823A0
:1018E0002CF481E090E09C8B8B8B3FC06D897E89CE
:1018F0008F89988D20E03FEF4FE757E40E9419034E
:1019000018164CF5698D7A8D8B8D9C8D20E030E01A
:1019100040E251E40E941F02DC01CB01BC01CD0179
:101920000E944900DC01CB019C8B8B8B0FC088ECA3
:1019300090E09A8B898B89899A890197F1F79A8B24
:10194000898B8B899C8901979C8B8B8B8B899C893C
:10195000009769F714C06D897E898F89988D0E94E0
:101960004900DC01CB019C8B8B8B8B899C89988BEC
:101970008F878F8598890197F1F7988B8F8782E100
:1019800060E00E94600780E090E0A0E8BFE38B8702
:101990009C87AD87BE876B857C858D859E8520E085
:1019A00030E04AEF54E40E941F02DC01CB018F8338
:1019B0009887A987BA876F81788589859A8520E07D
:1019C00030E040E85FE30E94790388232CF481E053
:1019D00090E09E838D833FC06F81788589859A854D
:1019E00020E03FEF4FE757E40E94190318164CF52B
:1019F0006B857C858D859E8520E030E040E251E45A
:101A00000E941F02DC01CB01BC01CD010E944900F4
:101A1000DC01CB019E838D830FC088EC90E09C831A
:101A20008B838B819C810197F1F79C838B838D81C4
:101A30009E8101979E838D838D819E81009769F79A
:101A400014C06F81788589859A850E944900DC01E0
:101A5000CB019E838D838D819E819A838983898129
:101A60009A810197F1F79A8389836D960FB6F8945E
:101A7000DEBF0FBECDBFCF91DF910895DF93CF932F
:101A8000CDB7DEB76D970FB6F894DEBF0FBECDBFF2
:101A90008D8F80E160E00E94600781E160E00E943C
:101AA000600780E06D8D0E94FF0882E161E00E9486
:101AB000600780E090E0A0E8BFE3898F9A8FAB8F4A
:101AC000BC8F698D7A8D8B8D9C8D20E030E04AEF44
:101AD00054E40E941F02DC01CB018D8B9E8BAF8BE7
:101AE000B88F6D897E898F89988D20E030E040E83D
:101AF0005FE30E94790388232CF481E090E09C8BC3
:101B00008B8B3FC06D897E898F89988D20E03FEF58
:101B10004FE757E40E94190318164CF5698D7A8D2A
:101B20008B8D9C8D20E030E040E251E40E941F024A
:101B3000DC01CB01BC01CD010E944900DC01CB01DD
:101B40009C8B8B8B0FC088EC90E09A8B898B89895A
:101B50009A890197F1F79A8B898B8B899C890197D8
:101B60009C8B8B8B8B899C89009769F714C06D893E
:101B70007E898F89988D0E944900DC01CB019C8B66
:101B80008B8B8B899C89988B8F878F859889019700
:101B9000F1F7988B8F8782E160E00E94600780E018
:101BA00090E0A0E8BFE38B879C87AD87BE876B85FD
:101BB0007C858D859E8520E030E04AEF54E40E94CC
:101BC0001F02DC01CB018F839887A987BA876F81B9
:101BD000788589859A8520E030E040E85FE30E94BF
:101BE000790388232CF481E090E09E838D833FC0AD
:101BF0006F81788589859A8520E03FEF4FE757E42C
:101C00000E94190318164CF56B857C858D859E8581
:101C100020E030E040E251E40E941F02DC01CB01F1
:101C2000BC01CD010E944900DC01CB019E838D8364
:101C30000FC088EC90E09C838B838B819C81019703
:101C4000F1F79C838B838D819E8101979E838D8389
:101C50008D819E81009769F714C06F817885898591
:101C60009A850E944900DC01CB019E838D838D8182
:101C70009E819A83898389819A810197F1F79A835A
:101C800089836D960FB6F894DEBF0FBECDBFCF919E
:101C9000DF910895DF93CF93CDB7DEB7E8970FB606
:101CA000F894DEBF0FBECDBF80E06FEF0E94BE088C
:101CB00080E161E00E946B0681E161E00E946B06B9
:101CC00082E161E00E946B0680E060E00E94FF0814
:101CD00082E160E00E94600780E090E0A0EFB1E464
:101CE0008DAB9EABAFABB8AF6DA97EA98FA998ADF8
:101CF00020E030E04AEF54E40E941F02DC01CB01F7
:101D000089AB9AABABABBCAB69A97AA98BA99CA9EF
:101D100020E030E040E85FE30E94790388232CF460
:101D200081E090E098AB8FA73FC069A97AA98BA901
:101D30009CA920E03FEF4FE757E40E9419031816D3
:101D40004CF56DA97EA98FA998AD20E030E040E266
:101D500051E40E941F02DC01CB01BC01CD010E94B5
:101D60004900DC01CB0198AB8FA70FC088EC90E055
:101D70009EA78DA78DA59EA50197F1F79EA78DA77C
:101D80008FA598A9019798AB8FA78FA598A90097C1
:101D900069F714C069A97AA98BA99CA90E94490076
:101DA000DC01CB0198AB8FA78FA598A99CA78BA727
:101DB0008BA59CA50197F1F79CA78BA788E30E94B0
:101DC0003E0D80E090E0A0E8BFE38FA398A7A9A70D
:101DD000BAA76FA178A589A59AA520E030E04AEFBF
:101DE00054E40E941F02DC01CB018BA39CA3ADA392
:101DF000BEA36BA17CA18DA19EA120E030E040E8B4
:101E00005FE30E94790388232CF481E090E09AA399
:101E100089A33FC06BA17CA18DA19EA120E03FEFD3
:101E20004FE757E40E94190318164CF56FA178A5E7
:101E300089A59AA520E030E040E251E40E941F020B
:101E4000DC01CB01BC01CD010E944900DC01CB01CA
:101E50009AA389A30FC088EC90E098A38F8F8F8DF1
:101E600098A10197F1F798A38F8F89A19AA1019763
:101E70009AA389A389A19AA1009769F714C06BA1BD
:101E80007CA18DA19EA10E944900DC01CB019AA3F7
:101E900089A389A19AA19E8F8D8F8D8D9E8D01978B
:101EA000F1F79E8F8D8F8EE00E943E0D80E090E0D6
:101EB000A0E8BFE3898F9A8FAB8FBC8F698D7A8D35
:101EC0008B8D9C8D20E030E04AEF54E40E941F028D
:101ED000DC01CB018D8B9E8BAF8BB88F6D897E899A
:101EE0008F89988D20E030E040E85FE30E9479031D
:101EF00088232CF481E090E09C8B8B8B3FC06D8914
:101F00007E898F89988D20E03FEF4FE757E40E944C
:101F1000190318164CF5698D7A8D8B8D9C8D20E0F8
:101F200030E040E251E40E941F02DC01CB01BC0121
:101F3000CD010E944900DC01CB019C8B8B8B0FC033
:101F400088EC90E09A8B898B89899A890197F1F7BF
:101F50009A8B898B8B899C8901979C8B8B8B8B8926
:101F60009C89009769F714C06D897E898F89988D47
:101F70000E944900DC01CB019C8B8B8B8B899C8957
:101F8000988B8F878F8598890197F1F7988B8F872A
:101F900081E00E943E0D80E090E0A0E0B0E48B87FD
:101FA0009C87AD87BE876B857C858D859E8520E06F
:101FB00030E04AEF54E40E941F02DC01CB018F8322
:101FC0009887A987BA876F81788589859A8520E067
:101FD00030E040E85FE30E94790388232CF481E03D
:101FE00090E09E838D833FC06F81788589859A8537
:101FF00020E03FEF4FE757E40E94190318164CF515
:102000006B857C858D859E8520E030E040E251E443
:102010000E941F02DC01CB01BC01CD010E944900DE
:10202000DC01CB019E838D830FC088EC90E09C8304
:102030008B838B819C810197F1F79C838B838D81AE
:102040009E8101979E838D838D819E81009769F784
:1020500014C06F81788589859A850E944900DC01CA
:10206000CB019E838D838D819E819A838983898113
:102070009A810197F1F79A838983E8960FB6F894CD
:10208000DEBF0FBECDBFCF91DF910895DF93CF9319
:10209000CDB7DEB72E970FB6F894DEBF0FBECDBF1B
:1020A00081E00E943E0D80E090E0A0E0B0E48B87EC
:1020B0009C87AD87BE876B857C858D859E8520E05E
:1020C00030E04AEF54E40E941F02DC01CB018F8311
:1020D0009887A987BA876F81788589859A8520E056
:1020E00030E040E85FE30E94790388232CF481E02C
:1020F00090E09E838D833FC06F81788589859A8526
:1021000020E03FEF4FE757E40E94190318164CF503
:102110006B857C858D859E8520E030E040E251E432
:102120000E941F02DC01CB01BC01CD010E944900CD
:10213000DC01CB019E838D830FC088EC90E09C83F3
:102140008B838B819C810197F1F79C838B838D819D
:102150009E8101979E838D838D819E81009769F773
:1021600014C06F81788589859A850E944900DC01B9
:10217000CB019E838D838D819E819A838983898102
:102180009A810197F1F79A8389832E960FB6F89476
:10219000DEBF0FBECDBFCF91DF910895DF93CF9308
:1021A00000D00F92CDB7DEB79B838A8319820EC011
:1021B0008981282F30E08A819B81FC01E20FF31F87
:1021C00080810E94320C89818F5F89838981282FC9
:1021D00030E08A819B81FC01E20FF31F808188231C
:1021E00039F70F900F900F90CF91DF910895DF9303
:1021F000CF9300D0CDB7DEB789836A8389818823E6
:1022000029F48A8180580E943E0D07C0898181305F
:1022100021F48A8180540E943E0D0F900F90CF913F
:10222000DF910895DF93CF93CDB7DEB7A1970FB6B7
:10223000F894DEBF0FBECDBF8E8F6F8F59A348A31A
:102240001D8EF9C08E8D6D8D0E94F71088A199A109
:102250000E94CE108F8D882F90E0A0E0B0E0BC01EE
:10226000CD010E94FD03DC01CB01898F9A8FAB8FDA
:10227000BC8F698D7A8D8B8D9C8D20E030E04AEF8C
:1022800054E40E941F02DC01CB018D8B9E8BAF8B2F
:10229000B88F6D897E898F89988D20E030E040E885
:1022A0005FE30E94790388232CF481E090E09C8B0B
:1022B0008B8B3FC06D897E898F89988D20E03FEFA1
:1022C0004FE757E40E94190318164CF5698D7A8D73
:1022D0008B8D9C8D20E030E040E251E40E941F0293
:1022E000DC01CB01BC01CD010E944900DC01CB0126
:1022F0009C8B8B8B0FC088EC90E09A8B898B8989A3
:102300009A890197F1F79A8B898B8B899C89019720
:102310009C8B8B8B8B899C89009769F714C06D8986
:102320007E898F89988D0E944900DC01CB019C8BAE
:102330008B8B8B899C89988B8F878F859889019748
:10234000F1F7988B8F8781E00E943E0D80E090E04E
:10235000A0E0B0E48B879C87AD87BE876B857C85CA
:102360008D859E8520E030E04AEF54E40E941F02F4
:10237000DC01CB018F839887A987BA876F81788525
:1023800089859A8520E030E040E85FE30E94790388
:1023900088232CF481E090E09E838D833FC06F8181
:1023A000788589859A8520E03FEF4FE757E40E94C2
:1023B000190318164CF56B857C858D859E8520E06C
:1023C00030E040E251E40E941F02DC01CB01BC017D
:1023D000CD010E944900DC01CB019E838D830FC09B
:1023E00088EC90E09C838B838B819C810197F1F733
:1023F0009C838B838D819E8101979E838D838D81AC
:102400009E81009769F714C06F81788589859A85C8
:102410000E944900DC01CB019E838D838D819E81CA
:102420009A83898389819A810197F1F79A838983B5
:102430008D8D8F5F8D8F8D8D8F3008F403CFA1969A
:102440000FB6F894DEBF0FBECDBFCF91DF910895D8
:10245000DF93CF93CDB7DEB727970FB6F894DEBFE3
:102460000FBECDBF9F838E831D821C828E819F8174
:102470009A8389838E819F81009789F480E30E94EB
:10248000320C48C089819A812AE030E0B9010E946B
:10249000BF1DCB019A8389838C818F5F8C83898157
:1024A0009A81009779F78E819F819A8389831D8213
:1024B0002DC09C818D81292F281B822F982F915010
:1024C0008AE0692F0E9441139C0189819A81B90198
:1024D0000E94BF1DCB018B838B81805D0E94320CDB
:1024E0009C818D81292F281B822F982F91508AE063
:1024F000692F0E9441139C0189819A81B9010E9430
:10250000BF1D9A8389838D818F5F8D839D818C818F
:10251000981778F227960FB6F894DEBF0FBECDBF9E
:10252000CF91DF910895DF93CF93CDB7DEB7629758
:102530000FB6F894DEBF0FBECDBF898B6A8B80E4E7
:102540000E943E0D188A0CC08889882F90E0FC01FB
:10255000EE57FE4F80810E94320C88898F5F888BF6
:102560008889803488F380E80E943E0D89896A89D1
:102570000E94F7101F8678C08F850E94320C80E081
:1025800090E0A0EAB0E48B879C87AD87BE876B851F
:102590007C858D859E8520E030E04AEF54E40E94E2
:1025A0001F02DC01CB018F839887A987BA876F81CF
:1025B000788589859A8520E030E040E85FE30E94D5
:1025C000790388232CF481E090E09E838D833FC0C3
:1025D0006F81788589859A8520E03FEF4FE757E442
:1025E0000E94190318164CF56B857C858D859E8598
:1025F00020E030E040E251E40E941F02DC01CB0108
:10260000BC01CD010E944900DC01CB019E838D837A
:102610000FC088EC90E09C838B838B819C81019719
:10262000F1F79C838B838D819E8101979E838D839F
:102630008D819E81009769F714C06F8178858985A7
:102640009A850E944900DC01CB019E838D838D8198
:102650009E819A83898389819A810197F1F79A8370
:1026600089838F858F5F8F878F85883008F484CF2B
:1026700062960FB6F894DEBF0FBECDBFCF91DF914B
:102680000895DF93CF9300D000D00F92CDB7DEB77F
:102690008C836D8381E090E09B838A831982198209
:1026A00012C08C81282F30E08A819B81AC01429F2F
:1026B000C001439F900D529F900D11249B838A83EC
:1026C00089818F5F898399818D81981750F38A81E1
:1026D0009B810F900F900F900F900F90CF91DF91F3
:1026E0000895DF93CF9300D000D0CDB7DEB78983B4
:1026F0006A838981282F30E03C832B838B819C81E6
:102700008130910521F12B813C81223031052CF45F
:102710008B819C81009761F046C02B813C812230E7
:10272000310521F18B819C818330910571F13BC092
:10273000A3E5B0E0E3E5F0E08081877F8C93A3E53B
:10274000B0E0E3E5F0E080818F7B8C932CC0A3E5C3
:10275000B0E0E3E5F0E0808180648C93A3E5B0E035
:10276000E3E5F0E08081877F8C931DC0A3E5B0E0B6
:10277000E3E5F0E080818F7B8C93A3E5B0E0E3E5B7
:10278000F0E0808188608C930EC0A3E5B0E0E3E5C3
:10279000F0E0808180648C93A3E5B0E0E3E5F0E0B5
:1027A000808188608C93A3E5B0E0E3E5F0E0808170
:1027B000887F8C93A3E5B0E0E3E5F0E090818A8127
:1027C000892B8C930F900F900F900F90CF91DF91EA
:1027D0000895DF93CF9300D00F92CDB7DEB78983F2
:1027E0008981282F30E03B832A838A819B81813035
:1027F000910521F12A813B81223031052CF48A8117
:102800009B81009761F046C02A813B8122303105CF
:1028100021F18A819B818330910571F13BC0A3E551
:10282000B0E0E3E5F0E080818F7E8C93A3E5B0E03B
:10283000E3E5F0E080818F7D8C932CC0A3E5B0E0D0
:10284000E3E5F0E0808180618C93A3E5B0E0E3E50F
:10285000F0E080818F7D8C931DC0A3E5B0E0E3E5BF
:10286000F0E080818F7E8C93A3E5B0E0E3E5F0E0BB
:10287000808180628C930EC0A3E5B0E0E3E5F0E0D8
:10288000808180618C93A3E5B0E0E3E5F0E0808196
:1028900080628C930F900F900F90CF91DF910895ED
:1028A000DF93CF930F92CDB7DEB78983E2E5F0E0F7
:1028B000898180830F90CF91DF910895DF93CF932B
:1028C000CDB7DEB7E2E5F0E08081CF91DF910895EA
:1028D000DF93CF930F92CDB7DEB78983ECE5F0E0BD
:1028E000898180830F90CF91DF910895DF93CF93FB
:1028F00000D0CDB7DEB78A838A81853620F58A81FC
:10290000482F50E0CA019C01220F331FC901969540
:10291000982F882797958795821B930B840F951F77
:1029200024E630E0B9010E94BF1DCB018983898173
:10293000823030F0ECE5F0E089818150808303C083
:10294000ECE5F0E010820F900F90CF91DF910895A9
:10295000DF93CF93CDB7DEB7A9E5B0E0E9E5F0E0CE
:10296000808181608C93CF91DF910895DF93CF9325
:10297000CDB7DEB7A9E5B0E0E9E5F0E080818E7F74
:102980008C93CF91DF910895DF93CF93CDB7DEB7CE
:10299000A9E5B0E0E9E5F0E0808182608C93CF9119
:1029A000DF910895DF93CF93CDB7DEB7A9E5B0E00F
:1029B000E9E5F0E080818D7F8C93CF91DF910895E0
:1029C000DF93CF9300D0CDB7DEB79A838983898117
:1029D0009A819093C9018093C8010F900F90CF9175
:1029E000DF910895DF93CF9300D0CDB7DEB79A8300
:1029F000898389819A819093CB018093CA010F903A
:102A00000F90CF91DF9108951F920F920FB60F9202
:102A100011242F933F934F935F936F937F938F93E3
:102A20009F93AF93BF93EF93FF93DF93CF93CDB774
:102A3000DEB78091CA019091CB01009729F0E09117
:102A4000CA01F091CB010995CF91DF91FF91EF91F0
:102A5000BF91AF919F918F917F916F915F914F91B6
:102A60003F912F910F900FBE0F901F9018951F92BE
:102A70000F920FB60F9211242F933F934F935F93B2
:102A80006F937F938F939F93AF93BF93EF93FF9336
:102A9000DF93CF93CDB7DEB78091C8019091C90184
:102AA000009729F0E091C801F091C9010995CF91F3
:102AB000DF91FF91EF91BF91AF919F918F917F91A6
:102AC0006F915F914F913F912F910F900FBE0F909B
:102AD0001F901895DF93CF9300D000D0CDB7DEB70D
:102AE00089836A838981282F30E03C832B838B8103
:102AF0009C818730910509F424C12B813C812830C9
:102B000031054CF58B819C818330910509F4A5C07A
:102B10002B813C81243031058CF48B819C81813068
:102B2000910509F460C02B813C81223031050CF005
:102B300077C08B819C810097C9F1EAC12B813C81D0
:102B40002530310509F4C3C08B819C818630910505
:102B50000CF0DAC09FC02B813C812B30310509F489
:102B600064C18B819C818C3091056CF42B813C81FC
:102B70002930310509F41FC18B819C818A30910570
:102B80000CF036C1FBC02B813C812D30310509F49E
:102B900086C18B819C818D3091050CF463C12B81A2
:102BA0003C812E30310509F497C1B2C1AFE4B0E0E9
:102BB000EFE4F0E080818E7F8C93AFE4B0E0EFE44F
:102BC000F0E080818D7F8C93AEE4B0E0EEE4F0E045
:102BD0008081877F8C93AEE4B0E0EEE4F0E080810A
:102BE0008F7E8C9395C1AFE4B0E0EFE4F0E080819C
:102BF00081608C93AFE4B0E0EFE4F0E080818D7F02
:102C00008C93AEE4B0E0EEE4F0E08081877F8C93BB
:102C1000AEE4B0E0EEE4F0E080818F7E8C9378C18A
:102C2000AFE4B0E0EFE4F0E080818E7F8C93AFE41E
:102C3000B0E0EFE4F0E0808182608C93AEE4B0E03D
:102C4000EEE4F0E08081877F8C93AEE4B0E0EEE4C8
:102C5000F0E080818F7E8C935BC1AFE4B0E0EFE465
:102C6000F0E0808181608C93AFE4B0E0EFE4F0E0CD
:102C7000808182608C93AEE4B0E0EEE4F0E080818D
:102C8000877F8C93AEE4B0E0EEE4F0E080818F7E4D
:102C90008C933EC1AFE4B0E0EFE4F0E080818E7F42
:102CA0008C93AFE4B0E0EFE4F0E080818D7F8C9313
:102CB000AEE4B0E0EEE4F0E0808188608C93AEE4B6
:102CC000B0E0EEE4F0E080818F7E8C9321C1AFE430
:102CD000B0E0EFE4F0E0808181608C93AFE4B0E09D
:102CE000EFE4F0E080818D7F8C93AEE4B0E0EEE421
:102CF000F0E0808188608C93AEE4B0E0EEE4F0E038
:102D000080818F7E8C9304C1AFE4B0E0EFE4F0E00B
:102D100080818E7F8C93AFE4B0E0EFE4F0E08081BF
:102D200082608C93AEE4B0E0EEE4F0E080818860F5
:102D30008C93AEE4B0E0EEE4F0E080818F7E8C9383
:102D4000E7C0AFE4B0E0EFE4F0E0808181608C9315
:102D5000AFE4B0E0EFE4F0E0808182608C93AEE419
:102D6000B0E0EEE4F0E0808188608C93AEE4B0E007
:102D7000EEE4F0E080818F7E8C93CAC0AFE4B0E0D7
:102D8000EFE4F0E080818E7F8C93AFE4B0E0EFE47D
:102D9000F0E080818D7F8C93AEE4B0E0EEE4F0E073
:102DA0008081877F8C93AEE4B0E0EEE4F0E0808138
:102DB00080618C93ADC0AFE4B0E0EFE4F0E08081DF
:102DC00081608C93AFE4B0E0EFE4F0E080818D7F30
:102DD0008C93AEE4B0E0EEE4F0E08081877F8C93EA
:102DE000AEE4B0E0EEE4F0E0808180618C9390C0CE
:102DF000AFE4B0E0EFE4F0E080818E7F8C93AFE44D
:102E0000B0E0EFE4F0E0808182608C93AEE4B0E06B
:102E1000EEE4F0E08081877F8C93AEE4B0E0EEE4F6
:102E2000F0E0808180618C9373C0AFE4B0E0EFE4A8
:102E3000F0E0808181608C93AFE4B0E0EFE4F0E0FB
:102E4000808182608C93AEE4B0E0EEE4F0E08081BB
:102E5000877F8C93AEE4B0E0EEE4F0E080818061A7
:102E60008C9356C0AFE4B0E0EFE4F0E080818E7F59
:102E70008C93AFE4B0E0EFE4F0E080818D7F8C9341
:102E8000AEE4B0E0EEE4F0E0808188608C93AEE4E4
:102E9000B0E0EEE4F0E0808180618C9339C0AFE473
:102EA000B0E0EFE4F0E080818E7F8C93AFE4B0E09F
:102EB000EFE4F0E0808182608C93AEE4B0E0EEE479
:102EC000F0E0808188608C93AEE4B0E0EEE4F0E066
:102ED000808180618C931CC0AFE4B0E0EFE4F0E04F
:102EE000808181608C93AFE4B0E0EFE4F0E080811A
:102EF00082608C93AEE4B0E0EEE4F0E08081886024
:102F00008C93AEE4B0E0EEE4F0E0808180618C93DD
:102F1000AEE4B0E0EEE4F0E08081887F8C93AEE434
:102F2000B0E0EEE4F0E090818A81892B8C930F90E1
:102F30000F900F900F90CF91DF910895DF93CF9373
:102F4000CDB7DEB72C970FB6F894DEBF0FBECDBF5E
:102F500089836A838981282F30E03C872B878B8582
:102F60009C858130910509F444C02B853C85223035
:102F700031052CF48B859C85009771F0C0C02B85A2
:102F80003C852230310509F461C08B859C858330F6
:102F9000910509F488C0B3C08A81282F30E03A87B0
:102FA000298789859A85009731F029853A852130CE
:102FB000310581F0A4C0AFE4B0E0EFE4F0E080813F
:102FC0008F7B8C93AFE4B0E0EFE4F0E080818F770B
:102FD0008C9395C0AFE4B0E0EFE4F0E080818F7EA9
:102FE0008C93AFE4B0E0EFE4F0E080818F7D8C93D0
:102FF00086C08A81282F30E038872F838F8198857B
:10300000009731F02F8138852130310581F077C06C
:10301000AFE4B0E0EFE4F0E0808180648C93AFE453
:10302000B0E0EFE4F0E080818F778C9368C0AFE48C
:10303000B0E0EFE4F0E0808180618C93AFE4B0E039
:10304000EFE4F0E080818F7D8C9359C08A81282F36
:1030500030E03E832D838D819E81009731F02D815C
:103060003E812130310581F04AC0AFE4B0E0EFE4A9
:10307000F0E080818F7B8C93AFE4B0E0EFE4F0E090
:10308000808180688C933BC0AFE4B0E0EFE4F0E077
:1030900080818F7E8C93AFE4B0E0EFE4F0E080813C
:1030A00080628C932CC08A81282F30E03C832B8354
:1030B0008B819C81009731F02B813C81213031053F
:1030C00081F01DC0AFE4B0E0EFE4F0E08081806407
:1030D0008C93AFE4B0E0EFE4F0E0808180688C9303
:1030E0000EC0AFE4B0E0EFE4F0E0808180618C934B
:1030F000AFE4B0E0EFE4F0E0808180628C932C9646
:103100000FB6F894DEBF0FBECDBFCF91DF9108950B
:10311000DF93CF93CDB7DEB7E6E4F0E08081918115
:10312000CF91DF910895DF93CF9300D0CDB7DEB775
:103130009A838983EAE4F0E089819A81918380838C
:103140000F900F90CF91DF910895DF93CF9300D030
:10315000CDB7DEB79A838983E8E4F0E089819A816C
:10316000918380830F900F90CF91DF910895DF932B
:10317000CF9300D0CDB7DEB79A838983E6E4F0E041
:1031800089819A81918380830F900F90CF91DF91F5
:103190000895DF93CF9300D0CDB7DEB79A838983AC
:1031A000ECE4F0E089819A81918380830F900F9005
:1031B000CF91DF910895DF93CF93CDB7DEB7ECE4E5
:1031C000F0E080819181CF91DF910895DF93CF93DB
:1031D000CDB7DEB78DE062E00E946A1582E060E064
:1031E0000E949E17CF91DF910895DF93CF9300D077
:1031F00000D0CDB7DEB79C838B838B819C810097F9
:10320000D1F088EE93E02B813C81B9010E94BF1D73
:10321000CB019A83898389819A81009741F0E6E402
:10322000F0E089819A8101979183808304C0E6E46C
:10323000F0E0118210820F900F900F900F90CF91BD
:10324000DF910895DF93CF9300D000D0CDB7DEB7E4
:103250009C838B838B819C81009709F18B819C815E
:103260009C0140E050E080E492E4AFE0B0E0BC01BB
:10327000CD010E94D31DDA01C9019A838983898116
:103280009A81009741F0E6E4F0E089819A81019704
:103290009183808304C0E6E4F0E0118210820F90F5
:1032A0000F900F900F90CF91DF910895EF92FF92C2
:1032B0000F931F93DF93CF9300D000D0CDB7DEB72D
:1032C0009C838B838B819C818536910580F58B81D6
:1032D0009C817C0100E010E0E6E4F0E080819181D7
:1032E00001969C0140E050E0C801B7010E94A01D7A
:1032F000DC01CB0124E630E040E050E0BC01CD0130
:103300000E94D31DDA01C9019A83898389819A8138
:103310008230910540F0EAE4F0E089819A810197DA
:103320009183808304C0EAE4F0E0118210820F9060
:103330000F900F900F90CF91DF911F910F91FF9001
:10334000EF900895DF93CF9300D00F92CDB7DEB703
:1033500089838981282F30E03B832A838A819B815E
:10336000009731F02A813B812130310549F00FC0AF
:10337000AEE4B0E0EEE4F0E0808180648C9307C0BE
:10338000AEE4B0E0EEE4F0E080818F7B8C930F90B0
:103390000F900F90CF91DF910895EF92FF920F93CE
:1033A0001F93DF93CF93CDB7DEB728970FB6F8946E
:1033B000DEBF0FBECDBF9E838D8378876F83ECE425
:1033C000F0E01182108284E69AE10E94A51B80E061
:1033D0000E94A2190E94111B1092CD011092CC01E3
:1033E0008091CC019091CD0183309105C8F320915B
:1033F000D8013091D9018091D6019091D701A901CE
:10340000481B590BCA019C838B832091DA013091B0
:10341000DB018091D8019091D901A901481B590B7A
:10342000CA019A8389838B819C81CC01A0E0B0E0A2
:1034300024E630E040E050E0BC01CD010E94A01D38
:103440007B018C018B819C819C0140E050E0898153
:103450009A81CC01A0E0B0E0280F391F4A1F5B1F02
:10346000C801B7010E94D31DDA01C901EF81F885B7
:1034700080838B819C819C0140E050E089819A810E
:10348000CC01A0E0B0E0280F391F4A1F5B1F80E489
:1034900092E4AFE0B0E0BC01CD010E94D31DDA019F
:1034A000C901ED81FE8180839183A283B383289635
:1034B0000FB6F894DEBF0FBECDBFCF91DF911F9145
:1034C0000F91FF90EF900895DF93CF93CDB7DEB7C4
:1034D0008091CC019091CD01009791F4E6E4F0E069
:1034E000808191819093D7018093D60181E00E94E1
:1034F000A21981E090E09093CD018093CC0130C07F
:103500008091CC019091CD018130910591F4E6E458
:10351000F0E0808191819093D9018093D80180E07F
:103520000E94A21982E090E09093CD018093CC019B
:1035300017C08091CC019091CD018230910581F42A
:10354000E6E4F0E0808191819093DB018093DA01E1
:103550000E941F1B83E090E09093CD018093CC01EB
:10356000CF91DF910895DF93CF9300D000D0CDB7F6
:10357000DEB79A8389837C836B8384E062E00E9458
:103580006A1580E060E00E949E1780E061E00E9482
:103590009E17EAE4F0E029813A8188EE93E0AC01DD
:1035A000249FC001259F900D349F900D11240197F9
:1035B000918380838B819C810E94931B0E94491B75
:1035C0000F900F900F900F90CF91DF910895DF93A0
:1035D000CF9300D000D0CDB7DEB79A8389837C83A8
:1035E0006B8384E062E00E946A1580E060E00E94E4
:1035F0009E1780E061E00E949E17EAE4F0E0898176
:103600009A810197918380838B819C810E94931B77
:103610000E94491B0F900F900F900F90CF91DF9158
:103620000895DF93CF93CDB7DEB7A9E5B0E0E9E524
:10363000F0E0808180628C93CF91DF910895DF93D9
:10364000CF93CDB7DEB7A9E5B0E0E9E5F0E0808142
:103650008F7D8C93CF91DF910895DF93CF93CDB77A
:10366000DEB7A9E5B0E0E9E5F0E0808184608C9305
:10367000CF91DF910895DF93CF93CDB7DEB7A9E562
:10368000B0E0E9E5F0E080818B7F8C93CF91DF9112
:103690000895DF93CF93CDB7DEB7A9E5B0E0E9E5B4
:1036A000F0E0808180618C93CF91DF910895DF936A
:1036B000CF93CDB7DEB7A9E5B0E0E9E5F0E08081D2
:1036C0008F7E8C93CF91DF910895DF93CF93CDB709
:1036D000DEB7A9E5B0E0E9E5F0E0808188608C9391
:1036E000CF91DF910895DF93CF93CDB7DEB7A9E5F2
:1036F000B0E0E9E5F0E08081877F8C93CF91DF91A6
:103700000895DF93CF9300D0CDB7DEB79A83898336
:1037100089819A819093D1018093D0010F900F906D
:10372000CF91DF910895DF93CF9300D0CDB7DEB76F
:103730009A83898389819A819093D3018093D2015E
:103740000F900F90CF91DF910895DF93CF9300D02A
:10375000CDB7DEB79A83898389819A819093D50109
:103760008093D4010F900F90CF91DF910895DF9354
:10377000CF9300D0CDB7DEB79A83898389819A81B0
:103780009093CF018093CE010F900F90CF91DF9156
:1037900008951F920F920FB60F9211242F933F930B
:1037A0004F935F936F937F938F939F93AF93BF9349
:1037B000EF93FF93DF93CF93CDB7DEB78091CE0128
:1037C0009091CF01009729F0E091CE01F091CF01C7
:1037D0000995CF91DF91FF91EF91BF91AF919F91AB
:1037E0008F917F916F915F914F913F912F910F90AA
:1037F0000FBE0F901F9018951F920F920FB60F9249
:1038000011242F933F934F935F936F937F938F93E5
:103810009F93AF93BF93EF93FF93DF93CF93CDB776
:10382000DEB78091D2019091D301009729F0E09109
:10383000D201F091D3010995CF91DF91FF91EF91E2
:10384000BF91AF919F918F917F916F915F914F91B8
:103850003F912F910F900FBE0F901F9018951F92C0
:103860000F920FB60F9211242F933F934F935F93B4
:103870006F937F938F939F93AF93BF93EF93FF9338
:10388000DF93CF93CDB7DEB78091D0019091D10176
:10389000009729F0E091D001F091D1010995CF91E5
:1038A000DF91FF91EF91BF91AF919F918F917F91A8
:1038B0006F915F914F913F912F910F900FBE0F909D
:1038C0001F9018951F920F920FB60F9211242F93ED
:1038D0003F934F935F936F937F938F939F93AF9398
:1038E000BF93EF93FF93DF93CF93CDB7DEB7809174
:1038F000D4019091D501009729F0E091D401F09185
:10390000D5010995CF91DF91FF91EF91BF91AF91D3
:103910009F918F917F916F915F914F913F912F91E7
:103920000F900FBE0F901F901895DF93CF93CDB7D8
:10393000DEB72E970FB6F894DEBF0FBECDBF8BE07B
:1039400061E00E946B068AE160E00E946B0688E1FC
:1039500061E00E946B0681E69DE10E94470B0E9498
:10396000F90983E00E944D0A80E062E00E946A1536
:1039700083E062E00E94711382E00E94E91380E418
:103980000E9468140E944A0E0E94160C8091DC016D
:103990009091DD01009731F48091DE019091DF017B
:1039A0000097A1F380E060E00E94F71080E690E0CD
:1039B0000E94CE108091DC019091DD010E942812BE
:1039C00081E060E00E94F7108EE690E00E94CE1049
:1039D0008091DE019091DF010E94281280E090E04A
:1039E000AAEFB3E48B879C87AD87BE876B857C8508
:1039F0008D859E8520E030E04AEF54E40E941F024E
:103A0000DC01CB018F839887A987BA876F8178857E
:103A100089859A8520E030E040E85FE30E947903E1
:103A200088232CF481E090E09E838D833FC06F81DA
:103A3000788589859A8520E03FEF4FE757E40E941B
:103A4000190318164CF56B857C858D859E8520E0C5
:103A500030E040E251E40E941F02DC01CB01BC01D6
:103A6000CD010E944900DC01CB019E838D830FC0F4
:103A700088EC90E09C838B838B819C810197F1F78C
:103A80009C838B838D819E8101979E838D838D8105
:103A90009E81009769F77ACF6F81788589859A85AD
:103AA0000E944900DC01CB019E838D838D819E8124
:103AB0009A83898389819A810197F1F79A8389830F
:103AC00065CFDF93CF93CDB7DEB78091E0018F5FF5
:103AD0008093E0018091E001813029F480E090E062
:103AE0000E94C9182AC08091E001823051F40E94DE
:103AF000DB189093DD018093DC0182E00E944D0A87
:103B00001CC08091E0018330C1F40E94DB189093C7
:103B1000DF018093DE012091DE013091DF01809191
:103B2000DC019091DD01A901481B590BCA0190935A
:103B3000DF018093DE010E94070ACF91DF91089593
:103B4000629FD001739FF001829FE00DF11D649F81
:103B5000E00DF11D929FF00D839FF00D749FF00D0D
:103B6000659FF00D9927729FB00DE11DF91F639FAE
:103B7000B00DE11DF91FBD01CF0111240895AA1B4D
:103B8000BB1B51E107C0AA1FBB1FA617B70710F048
:103B9000A61BB70B881F991F5A95A9F7809590957A
:103BA000BC01CD010895A1E21A2EAA1BBB1BFD0189
:103BB0000DC0AA1FBB1FEE1FFF1FA217B307E4070C
:103BC000F50720F0A21BB30BE40BF50B661F771F64
:103BD000881F991F1A9469F7609570958095909544
:103BE0009B01AC01BD01CF0108952F923F924F92EE
:103BF0005F926F927F928F929F92AF92BF92CF927D
:103C0000DF92EF92FF920F931F93CF93DF93CDB785
:103C1000DEB7CA1BDB0B0FB6F894DEBF0FBECDBFFD
:103C200009942A88398848885F846E847D848C84CE
:103C30009B84AA84B984C884DF80EE80FD800C81D7
:103C40001B81AA81B981CE0FD11D0FB6F894DEBFBA
:0C3C50000FBECDBFED010895F894FFCF2A
:103C5C00506572696F642054696D653D20004F6E2C
:103C6C00205469636B73203D2000000000000000AD
:103C7C00000000010202030303030404040404040F
:103C8C0004040505050505050505050505050505DA
:103C9C0005050606060606060606060606060606BA
:103CAC0006060606060606060606060606060606A8
:103CBC00060607070707070707070707070707078A
:103CCC000707070707070707070707070707070778
:103CDC000707070707070707070707070707070768
:103CEC000707070707070707070707070707070758
:103CFC00070708080808080808080808080808083A
:103D0C000808080808080808080808080808080827
:103D1C000808080808080808080808080808080817
:103D2C000808080808080808080808080808080807
:103D3C0008080808080808080808080808080808F7
:103D4C0008080808080808080808080808080808E7
:103D5C0008080808080808080808080808080808D7
:103D6C0008080808080808080808080808080808C7
:103D7C000808020017151F000000000000040704CB
:103D8C000C18040A00151F000000060E040404049D
:103D9C00000000000E0A0E020408000000000704D8
:103DAC000C180000040A1B0A0400000007041F0082
:023DBC00000005
:00000001FF
